{
  "contractName": "Documents",
  "abi": [
    {
      "inputs": [
        {
          "internalType": "string",
          "name": "_sha256",
          "type": "string"
        }
      ],
      "name": "setDocument",
      "outputs": [],
      "stateMutability": "nonpayable",
      "type": "function"
    },
    {
      "inputs": [
        {
          "internalType": "string",
          "name": "_sha256",
          "type": "string"
        }
      ],
      "name": "getDocument",
      "outputs": [
        {
          "internalType": "uint256",
          "name": "timestamp",
          "type": "uint256"
        },
        {
          "internalType": "address",
          "name": "user",
          "type": "address"
        },
        {
          "internalType": "bool",
          "name": "exists",
          "type": "bool"
        },
        {
          "internalType": "bytes32",
          "name": "kec",
          "type": "bytes32"
        },
        {
          "internalType": "uint256",
          "name": "block_num",
          "type": "uint256"
        }
      ],
      "stateMutability": "view",
      "type": "function"
    },
    {
      "inputs": [
        {
          "internalType": "string",
          "name": "_sha256",
          "type": "string"
        }
      ],
      "name": "verifier",
      "outputs": [
        {
          "internalType": "bool",
          "name": "",
          "type": "bool"
        }
      ],
      "stateMutability": "view",
      "type": "function"
    }
  ],
  "bytecode": "0x608060405234801561001057600080fd5b5061075e806100206000396000f3fe608060405234801561001057600080fd5b50600436106100415760003560e01c8063537c0786146100465780637ccb6a6414610062578063caa0f8c914610096575b600080fd5b610060600480360381019061005b91906104af565b6100c6565b005b61007c600480360381019061007791906104af565b61021d565b60405161008d959493929190610586565b60405180910390f35b6100b060048036038101906100ab91906104af565b6102fe565b6040516100bd91906105d9565b60405180910390f35b6000816040516020016100d9919061066e565b60405160208183030381529060405280519060200120905060008060008381526020019081526020016000206000015414610149576040517f08c379a000000000000000000000000000000000000000000000000000000000815260040161014090610708565b60405180910390fd5b42600080838152602001908152602001600020600001819055503360008083815260200190815260200160002060010160006101000a81548173ffffffffffffffffffffffffffffffffffffffff021916908373ffffffffffffffffffffffffffffffffffffffff160217905550600160008083815260200190815260200160002060010160146101000a81548160ff021916908315150217905550806000808381526020019081526020016000206002018190555043600080838152602001908152602001600020600301819055505050565b60008060008060008086604051602001610237919061066e565b60405160208183030381529060405280519060200120905060008082815260200190815260200160002060000154955060008082815260200190815260200160002060010160009054906101000a900473ffffffffffffffffffffffffffffffffffffffff16945060008082815260200190815260200160002060010160149054906101000a900460ff1693506000808281526020019081526020016000206002015492506000808281526020019081526020016000206003015491505091939590929450565b60008082604051602001610312919061066e565b60405160208183030381529060405280519060200120905060008082815260200190815260200160002060010160149054906101000a900460ff16915050919050565b6000604051905090565b600080fd5b600080fd5b600080fd5b600080fd5b6000601f19601f8301169050919050565b7f4e487b7100000000000000000000000000000000000000000000000000000000600052604160045260246000fd5b6103bc82610373565b810181811067ffffffffffffffff821117156103db576103da610384565b5b80604052505050565b60006103ee610355565b90506103fa82826103b3565b919050565b600067ffffffffffffffff82111561041a57610419610384565b5b61042382610373565b9050602081019050919050565b82818337600083830152505050565b600061045261044d846103ff565b6103e4565b90508281526020810184848401111561046e5761046d61036e565b5b610479848285610430565b509392505050565b600082601f83011261049657610495610369565b5b81356104a684826020860161043f565b91505092915050565b6000602082840312156104c5576104c461035f565b5b600082013567ffffffffffffffff8111156104e3576104e2610364565b5b6104ef84828501610481565b91505092915050565b6000819050919050565b61050b816104f8565b82525050565b600073ffffffffffffffffffffffffffffffffffffffff82169050919050565b600061053c82610511565b9050919050565b61054c81610531565b82525050565b60008115159050919050565b61056781610552565b82525050565b6000819050919050565b6105808161056d565b82525050565b600060a08201905061059b6000830188610502565b6105a86020830187610543565b6105b5604083018661055e565b6105c26060830185610577565b6105cf6080830184610502565b9695505050505050565b60006020820190506105ee600083018461055e565b92915050565b600081519050919050565b600081905092915050565b60005b8381101561062857808201518184015260208101905061060d565b83811115610637576000848401525b50505050565b6000610648826105f4565b61065281856105ff565b935061066281856020860161060a565b80840191505092915050565b600061067a828461063d565b915081905092915050565b600082825260208201905092915050565b7f5468697320646f63756d656e742068617320616c7265616479206265656e207260008201527f65636f7264656400000000000000000000000000000000000000000000000000602082015250565b60006106f2602783610685565b91506106fd82610696565b604082019050919050565b60006020820190508181036000830152610721816106e5565b905091905056fea2646970667358221220477d9cbba8e6743ecff956f09fcbbf5fbe9a9b92c189e8b3e966d46cae5b53f364736f6c634300080b0033",
  "immutableReferences": {},
  "source": "// SPDX-License-Identifier: MIT\r\npragma solidity >=0.4.22 <0.9.0;\r\npragma experimental ABIEncoderV2;\r\n\r\ncontract Documents{\r\n    \r\n    struct Record {\r\n        uint256 timestamp;\r\n        address user;\r\n        bool exists;\r\n        bytes32 kec;\r\n        uint block_num;\r\n    }\r\n        \r\n    mapping(bytes32 => Record) records;\r\n    \r\n    function setDocument( string memory _sha256 ) public {\r\n        bytes32 hash_document = keccak256(abi.encodePacked( _sha256));\r\n        require(records[hash_document].timestamp == 0 ,\"This document has already been recorded\");\r\n           records[hash_document].timestamp = block.timestamp;\r\n           records[hash_document].user = msg.sender;\r\n           records[hash_document].exists = true;\r\n           records[hash_document].kec = hash_document;\r\n           records[hash_document].block_num =  block.number;\r\n       }\r\n\r\n    function getDocument(string memory _sha256) public view returns(uint256 timestamp, address user, bool exists, bytes32 kec, uint block_num) {\r\n        bytes32 hash_document = keccak256(abi.encodePacked( _sha256)); \r\n        timestamp = records[hash_document].timestamp;\r\n        user = records[hash_document].user;\r\n        exists = records[hash_document].exists; \r\n        kec = records[hash_document].kec; \r\n        block_num = records[hash_document].block_num;\r\n       }\r\n\r\n    function verifier(string memory _sha256) public view returns(bool){\r\n        bytes32 hash_document = keccak256(abi.encodePacked( _sha256));\r\n        return records[hash_document].exists;\r\n    }\r\n            \r\n\r\n}",
  "sourcePath": "C:\\Users\\costa\\OneDrive\\Escritorio\\ANGELES\\EXTRIMIAN\\Certificacion de documentos\\contracts\\Documents.sol",
  "compiler": {
    "name": "solc",
    "version": "0.8.11+commit.d7f03943.Emscripten.clang"
  },
  "schemaVersion": "3.4.4",
  "updatedAt": "2022-04-01T14:21:40.272Z",
  "devdoc": {
    "kind": "dev",
    "methods": {},
    "version": 1
  },
  "userdoc": {
    "kind": "user",
    "methods": {},
    "version": 1
  }
}